S00F0000555043617070322E73726563BA
S27400000000000120D9040000E9040000D5370000E9040000E9040000E904000000000000000000000000000000000000A9DE0000E904000000000000C5DE0000ADDD00004DC5000059C5000065C5000071C500007DC5000089C5000095C50000A1C50000ADC50000B9C50000C5C50000D1C500003C
S274000070DDC50000E9C50000F5C5000001C60000E9040000E9040000E9040000E9040000E90400003D370000A1370000E9040000253700003137000071370000E9040000E9040000E9040000E904000015D90000E90400000DC60000E9040000E9040000E9040000E9040000E9040000DD360000EE
S2740000E0E9040000E9040000E9040000E9040000E9040000E9040000E9040000E9040000E9040000E9040000E9040000E9040000E9040000E9040000E9040000E904000001370000E9040000E9040000E9040000E9040000E9040000E9040000E9040000E9040000E9040000E9040000E904000074
S274000150E9040000E9040000E9040000E9040000E9040000E1360000E9040000E9040000E9040000E9040000E9040000E9040000E9040000E9040000E9040000E9040000E9040000E9040000E9040000E9040000E9040000E9040000E9040000E9040000E9040000E9040000E9040000E904000024
S2740001C0E9040000E9040000E9040000E9040000E9040000E9040000E9040000E9040000E9040000E9040000E9040000E9040000E9040000E9040000E9040000E9040000E9040000E9040000E9040000E9040000E9040000E9040000E9040000E9040000E9040000E9040000E9040000E9040000DE
S274000230E9040000E9040000E9040000E9040000E9040000E9040000E9040000E9040000E9040000E9040000E9040000E9040000E9040000E9040000E9040000E9040000E9040000E9040000E9040000E9040000E9040000E9040000E9040000E9040000E9040000E9040000E9040000E90400006D
S2740002A0E9040000E9040000E9040000E9040000E9040000E9040000E9040000E9040000E9040000E9040000E9040000E9040000E9040000E9040000E9040000E9040000E9040000E9040000E9040000E9040000E9040000E9040000E9040000E9040000E9040000E9040000E9040000E9040000FD
S274000310E9040000E9040000E9040000E9040000E9040000E9040000E9040000E9040000E9040000E9040000E9040000E9040000E9040000E9040000E9040000E9040000E9040000E9040000E9040000E9040000E9040000E9040000E9040000E9040000E9040000E9040000E9040000E90400008C
S274000380E9040000E9040000E9040000E9040000E9040000E9040000E9040000E9040000E9040000E9040000E9040000E9040000E9040000E9040000E9040000E9040000E9040000E9040000E9040000E9040000E9040000E9040000E9040000E9040000E9040000E9040000E9040000E90400001C
S2740003F0E9040000E9040000E9040000FFFFFFFFFFFFFFFFFFFFFFFFFFFFFFFFFEFFFFFF10B5054C237833B9044B13B10448AFF300800123237010BD4006FF1F000000007C6E010008B5064B1BB106480649AFF300800648036813B1054B03B1984708BD000000007C6E01004406FF1F3C06FF1F84
S27400046000000000154B002B08BF134B9D46A3F5803A00218B460F461348144A121A0FF00BFD0F4B002B00D098470E4B002B00D098470020002104000D000D48002802D00C48AFF300800FF0B1FC2000290008F055F90FF06FFC00BF000008000000012000000000000000004006FF1F7C1A0020EA
S2740004D0000000000000000072B60BF061FE0BF0EFFE62B6FFF7BEFFFFF7FEBF81F0004102E000BF83F0004330B54FEA41044FEA430594EA050F08BF90EA020F1FBF54EA000C55EA020C7FEA645C7FEA655C00F0E2804FEA5454D4EB5555B8BF6D420CDD2C4480EA020281EA030382EA000083EA63
S274000540010180EA020281EA0303362D88BF30BD11F0004F4FEA01314FF4801C4CEA113102D0404261EB410113F0004F4FEA03334CEA133302D0524263EB430394EA050F00F0A780A4F10104D5F1200E0DDB02FA0EFC22FA05F2801841F1000103FA0EF2801843FA05F359410EE0A5F120050EF194
S2740005B0200E012A03FA0EFC28BF4CF0020C43FA05F3C01851EBE37101F0004507D54FF0000EDCF1000C7EEB00006EEB0101B1F5801F1BD3B1F5001F0CD349085FEA30004FEA3C0C04F101044FEA445212F5800F80F09A80BCF1004F08BF5FEA500C50F1000041EB045141EA050130BD5FEA4C0CB8
S274000620404141EB010111F4801FA4F10104E9D191F0000F04BF01460020B1FA81F308BF2033A3F10B03B3F120020CDA0C3208DD02F1140CC2F10C0201FA0CF021FA02F10CE002F11402D8BFC2F1200C01FA02F120FA0CFCDCBF41EA0C019040E41AA2BF01EB0451294330BD6FEA04041F3C1CDAB8
S2740006900C340EDC04F11404C4F1200220FA04F001FA02F340EA030021FA04F345EA030130BDC4F10C04C4F1200220FA02F001FA04F340EA0300294630BD21FA04F0294630BD94F0000F83F4801306BF81F480110134013D4EE77FEA645C18BF7FEA655C29D094EA050F08BF90EA020F05D054EAD2
S274000700000C04BF1946104630BD91EA030F1EBF0021002030BD5FEA545C05D14000494128BF41F0004130BD14F580043CBF01F5801130BD01F0004545F0FE4141F470014FF0000030BD7FEA645C1ABF194610467FEA655C1CBF0B46024650EA013406BF52EA033591EA030F41F4002130BD00BF98
S27400077090F0000F04BF0021704730B54FF4806404F132044FF000054FF0000150E700BF90F0000F04BF0021704730B54FF4806404F1320410F0004548BF40424FF000013EE700BF42004FEAE2014FEA31014FEA02701FBF12F07F4393F07F4F81F06051704792F0000F14BF93F07F4F704730B555
S2740007E04FF4607401F0004521F0004120E700BF50EA010208BF704730B54FF000050AE050EA010208BF704730B511F0004502D5404261EB41014FF4806404F132045FEA915C3FF4DCAE4FF003025FEADC0C18BF03325FEADC0C18BF033202EBDC02C2F1200300FA03FC20FA02F001FA03FE40EAD5
S2740008500E0021FA02F11444C1E600BF70B54FF0FF0C4CF4E06C1CEA11541DBF1CEA135594EA0C0F95EA0C0F00F0DEF82C4481EA030621EA4C5123EA4C5350EA013518BF52EA033541F4801143F4801338D0A0FB02CE4FF00005E1FB02E506F00042E0FB03E54FF00006E1FB03569CF0000F18BFCC
S2740008C04EF0010EA4F1FF04B6F5007F64F5407404D25FEA4E0E6D4146EB060642EAC62141EA55514FEAC52040EA5E504FEACE2EB4F1FD0C88BFBCF5E06F1ED8BEF1004F08BF5FEA500E50F1000041EB045170BD06F0004646EA010140EA020081EA0301B4EB5C04C2BFD4EB0C0541EA045170BDE6
S27400093041F480114FF0000E013C00F3AB8014F1360FDEBF002001F0004170BDC4F10004203C35DA0C341BDC04F11404C4F1200500FA05F320FA04F001FA05F240EA020001F0004221F0004110EBD37021FA04F642EB06015EEA430E08BF20EAD37070BDC4F10C04C4F1200500FA04F320FA05F099
S2740009A001FA04F240EA020001F0004110EBD37041F100015EEA430E08BF20EAD37070BDC4F1200500FA05F24EEA020E20FA04F301FA05F243EA020321FA04F001F0004121FA04F220EA020000EBD3705EEA430E08BF20EAD37070BD94F0000F0FD101F00046400041EB010111F4801F08BF013CDA
S274000A10F7D041EA060195F0000F18BF704703F00046520043EB030313F4801F08BF013DF7D043EA0603704794EA0C0F0CEA135518BF95EA0C0F0CD050EA410618BF52EA4306D1D181EA030101F000414FF0000070BD50EA410606BF1046194652EA430619D094EA0C0F02D150EA013613D195EABF
S274000A800C0F05D152EA03361CBF104619460AD181EA030101F0004141F0FE4141F470014FF0000070BD41F0FE4141F4780170BD70B54FF0FF0C4CF4E06C1CEA11541DBF1CEA135594EA0C0F95EA0C0F00F0A7F8A4EB050481EA030E52EA03354FEA013100F088804FEA03334FF0805545EA13138D
S274000AF043EA12634FEA022245EA111545EA10654FEA00260EF000419D4208BF964244F1FD0404F5407402D25B084FEA3202B61A65EB03055B084FEA32024FF480104FF4002CB6EB020E75EB030E22BFB61A754640EA0C005B084FEA3202B6EB020E75EB030E22BFB61A754640EA5C005B084FEA78
S274000B603202B6EB020E75EB030E22BFB61A754640EA9C005B084FEA3202B6EB020E75EB030E22BFB61A754640EADC0055EA060E18D04FEA051545EA16754FEA06164FEAC30343EA52734FEAC2025FEA1C1CC0D111F4801F0BD141EA00014FF000004FF0004CB6E711F4801F04BF01430020B4F114
S274000BD0FD0C88BFBCF5E06F3FF6AFAEB5EB030C04BFB6EB020C5FEA500C50F1000041EB045170BD0EF0004E4EEA113114EB5C04C2BFD4EB0C0541EA045170BD41F480114FF0000E013C90E645EA060E8DE60CEA135594EA0C0F08BF95EA0C0F3FF43BAF94EA0C0F0AD150EA01347FF434AF95EA4D
S274000C400C0F7FF425AF104619462CE795EA0C0F06D152EA03353FF4FDAE1046194622E750EA410618BF52EA43067FF4C5AE50EA41047FF40DAF52EA43057FF4EBAE12E74FF0FF3C06E000BF4FF0010C02E000BF4FF0010C4DF804CD4FEA410C7FEA6C5C4FEA430C18BF7FEA6C5C1BD001B050EA0F
S274000CB0410C0CBF52EA430C91EA030F02BF90EA020F0020704710F1000F91EA030F58BF994208BF90422CBFD8176FEAE37040F0010070474FEA410C7FEA6C5C02D150EA013C07D14FEA430C7FEA6C5CD6D152EA033CD3D05DF8040B704700BF8446104662468C461946634600E000BF01B5FFF7C8
S274000D20B7FF002848BF10F1000F01BD4DF808EDFFF7F4FF0CBF012000205DF808FB00BF4DF808EDFFF7EAFF34BF012000205DF808FB00BF4DF808EDFFF7E0FF94BF012000205DF808FB00BF4DF808EDFFF7CEFF94BF012000205DF808FB00BF4DF808EDFFF7C4FF34BF012000205DF808FB00BF61
S274000D904FEA4102B2F1E04324BFB3F5001CDCF1FE5C0DD901F0004C4FEAC0024CEA5070B2F1004F40EB830008BF20F00100704711F0804F21D113F13872BCBF01F00040704741F480114FEA5252C2F11802C2F1200C10FA0CF320FA02F018BF40F001004FEAC1234FEAD32303FA0CFC40EA0C00D5
S274000E0023FA02F34FEA4303CCE77FEA625307D150EA01331EBF4FF0FE4040F44000704701F0004040F0FE4040F40000704700BF4BB942B9002908BF002802D04FF0FF31084600F03BB882B0EC462DE9005000F01DF8DDF804E002B00CBC70472DE97043069E14461D468046894600F029F804FBF6
S274000E7001F300FB0533A4FB00451D44B8EB040469EB0505C6E90045BDE870832DE97043069E1446804689461D4600F05DF900FB05F504FB0153A0FB04451D44B8EB040469EB0505C6E90045BDE87083704700BF00292DE9F00FC0F29F800024002BC0F29680154606460F46002B3ED18A4257D917
S274000EE0B2FA82F34BB1C3F1200201FA03F720FA02F29D40174300FA03F6290CB7FBF1F2330C01FB127CA8B243EA0C4700FB02F3BB4209D97F1902F1FF3C80F00181BB4240F2FE80023A2F44FF1AB7FBF1F3B6B201FB137146EA014100FB03F0884208D9491903F1FF3780F0ED80884240F2EA80BC
S274000F50023B43EA0242002303E08B420AD900231A461046194614B1404261EB4101BDE8F00F7047B3FA83F8B8F1000F40F084808B4202D3824200F2DE8000230122E8E712B90123B3FBF2F5B5FA85F2002A39D17F1B280C1FFA85FC0123B7FBF0F1320C00FB117742EA07470CFB01F2BA4207D973
S274000FC07F1901F1FF3802D2BA4200F2C1804146BF1AB7FBF0F2B6B200FB127046EA00400CFB02FC844507D9401902F1FF3702D2844500F2AB803A4642EA0142B1E7E443524263EB430364E7404261EB41014FF0FF345BE79540C2F1200327FA03F1280C26FA03F39740B1FBF0F81F433B0C00FBC7
S27400103018111FFA85FC43EA01410CFB08F38B4206FA02F608D9491908F1FF3279D28B4277D9A8F102082944C91AB1FBF0F3BFB200FB131147EA01470CFB03F2BA4207D97F1903F1FF3160D2BA425ED9023B2F44BF1A43EA084390E7C8F1200203FA08FC25FA02F343EA0C0C4FEA1C4921FA02F39E
S2740010A001FA08F720FA02F2B3FBF9F1174309FB11333A0C1FFA8CFB42EA03430BFB01FA9A4505FA08F008D913EB0C0301F1FF3235D29A4533D902396344CAEB0303B3FBF9F209FB1233BFB247EA03470BFB02F9B94508D917EB0C0702F1FF331BD2B94519D9023A674442EA0145A5FB0001C9EB57
S27400111007078F424FF000030AD305D02A4620E7624601E73B4614E706FA08F68642F5D26A1E002315E71A46E5E70B46A0E71146CBE7904688E7434642460AE7023A53E702392F443CE700BF2DE9F00F144605460E46002B43D18A4253D9B2FA82F757B1C7F1200620FA06F601FA07F302FA07F434
S2740011801E4300FA07F5210CB6FBF1F22B0C01FB1267A0B243EA074600FB02F3B34209D9361902F1FF3780F0F680B34240F2F380023A2644F61AB6FBF1F3ADB201FB136145EA014100FB03F0884208D9091903F1FF3680F0E280884240F2DF80023B43EA0242002310461946BDE8F00F70478B4261
S2740011F04AD8B3FA83F6002E4DD18B4202D3824200F2D6800023012210461946BDE8F00F704712B90124B4FBF2F4B4FA84F2002A7CD1091B260CA7B20123B1FBF6F02A0C06FB101142EA014107FB00F28A4207D9091900F1FF3C02D28A4200F2C3806046891AB1FBF6F2ADB206FB121145EA01450F
S27400126007FB02F7AF4208D92C1902F1FF3180F09680A74240F29380023A42EA004210461946BDE8F00F704700231A4610461946BDE8F00F7047C6F1200522FA05F4B3401C434FEA144821FA05F301FA06F720FA05F5B3FBF8FC2F4308FB1C333D0C1FFA84FA45EA03430AFB0CF9994502FA06FB4C
S2740012D004D91B190CF1FF326DD39446C9EB0303B3FBF8F508FB1533BFB247EA03470AFB05F8B84504D93F1905F1FF3361D31D4645EA0C4CACFB0B23C8EB07079F424FF0000549D345D062462B4663E79440C2F1200321FA03FC260C20FA03F301FA02F5BCFBF6F843EA05010B0C06FB18CCA7B2D6
S27400134043EA0C4C07FB08F3634500FA02F509D91CEB040C08F1FF323AD2634538D9A8F10208A444C3EB0C0CBCFBF6F389B206FB13CC41EA0C4107FB03F28A4207D9091903F1FF3022D28A4220D9023B2144891A43EA084349E73A460CE733461FE70A466BE7B0409042B6D20CF1FF32002319E7F4
S2740013B03346324616E799458FD9ACF1020C23448CE7B8459BD9023D274499E70346DEE79046C7E7023821443AE700BF10F8012B11F8013B012A28BF9A42F7D0D01A70474FEA410212F5001215D211D56FF47873B3EB625212D94FEAC12343F0004343EA505311F0004F23FA02F018BF40427047D5
S2740014204FF00000704750EA013005D111F0004008BF6FF0004070474FF00000704700BF08B50AF083FF00F00BF80AF087FF08BD08B50CF0BBFA07F057FCFFF7F1FF08BD08B500F001F808BD034B50221A7040225A7004229A70704700D0074010B582B0074C0523237002230093C82301930020FE
S2740014900449224623460AF08FFA607802B010BDACD7FF1FB068010010B582B00446FFF7E5FF10F0010F0AD00A2001F0CBFDFFF7DDFF10F0010F02D00A2001F0C3FD064A147001230093C82301930020034903460AF06AFA02B010BDACD7FF1FB068010010B582B00446FFF7C1FF10F0010F0AD087
S2740015000A2001F0A7FDFFF7B9FF10F0010F02D00A2001F09FFD0620FFF7C6FF074A01231370547002230093C82301930020044903460AF041FA02B010BD00BFACD7FF1FB0680100F0B583B006460F461546FFF795FF10F0010F0AD00A2001F07BFDFFF78DFF10F0010F02D00A2001F073FD0620C9
S274001570FFF79AFF0B4C02232370330A6370A670E01C39462A460EF07EFC03350095C823019300200449224603460AF00DFA03B0F0BD00BFACD7FF1FB06801002DE9F04782B080460E461546FFF760FF10F0010F0AD00A2001F046FDFFF758FF10F0010F02D00A2001F03EFD002D22DD4027124C94
S2740015E04FF0030ADFF844903F2DD8BFAFB284F800A0330A6370A670FB1C0093C823019300204946224623460AF0D6F94046E11C3A460EF038FC3E44B6B2B844403D002DE2DC02B0BDE8F087ACD7FF1FB0680100F8B505460E461446B0F5804F2AD88318B3F5804F26DC10F03F070FD0C7F1400728
S274001650BFB2BA4203DCD2B2FFF774FFF8BDFAB2FFF770FF3D44ADB23E44E41B002C0EDD40273F2CD8BFA7B228463146FAB2FFF761FF3D44ADB23E44403C002CF1DC0620FFF70AFFF8BD00BF08B50246012003494FF0FF3308F01CFE08BD00BFF4D7FF1F2DE9F04105460C460EF0CDFE86B2184BEB
S2740016C0B3F800801FFA88F808F10108C0EB08081FFA88F818F4004F15D1A4B20FFA88F223B29A4212DD0F4F36B2904607FA84F0294632460EF0CCFE58B10134A4B223B29845F3DC07E04FF6FF7006E04FF6FF7003E0204601E04FF6FF7000B2BDE8F0814CDAFF1F20D9FF1F2DE9F84F80461949D1
S274001730D1E90067B61847EB0307D1E90023BB4208BFB2421AD2DFF850A04FF000098B4650464946FFF7ACFF002812DA40464946FFF7A6FF00280FDA0A2001F073FCDBE90045BD4208BFB442EAD308E00020BDE8F88F0020BDE8F88F0120BDE8F88F0020BDE8F88F50DFFF1FA02D0100F8B50746E3
S2740017A014461D460E4E30460EF055FE034681190C4A1088927898538A70142001F04AFC0022094B1A8030460EF045FE80B2FFF763FF384622462B46FFF7A6FFF8BD00BFF4D7FF1FC42F01004CDAFF1FF8B507460E4614461D46054839460EF024FE304622462B46FFF7CAFFF8BD00BFF4D7FF1F8F
S27400181008B50448044949F640420023FFF7E6FF08BD00BFA82D0100B42D010008B54FF4007009F081FA642001F00CFC4FF4007009F096FA40F61C4001F004FC0022014B1A8008BD4CDAFF1F08B50B480B4964220023FFF7C3FF38B109480849094A0023FFF7BCFF034620B94FF4FA72064B1A80AE
S2740018800023184608BD00BFB82D0100B42D0100BC2D010020BF0200D4E3FF1F10B59048904964220023FFF7A1FF044620B940F2F5128D4B1A8011E18C488A494FF47A720023FFF793FF044620B94FF4FB72864B1A8003E1864883494FF47A720023FFF785FF044620B940F2F7127F4B1A80F5E071
S2740018F080487C494FF47A720023FFF777FF044620B94FF4FC72784B1A80E7E07A4875497A4A0023FFF76AFF044620B940F2F912714B1A80DAE04FF47A7001F093FB74486C4942F210720023FFF758FF044620B94FF4FD72684B1A80C8E06E480021FFF7AFFE002805DA40F2FB12634B1A800024D1
S274001960BCE069485F494FF47A720023FFF73EFF044620B94FF4FE725B4B1A80AEE0634858494FF47A720023FFF730FF044620B940F2FD12544B1A80A0E05D4851494FF47A720023FFF722FF044620B94FF4FF724D4B1A8092E057484A4942F210720023FFF714FF044620B940F2FF12464B1A804C
S2740019D084E05148434942F210720023FFF706FF044620B94FF400723F4B1A8076E04B483C494FF47A720023FFF7F8FE044620B940F20122384B1A8068E0454835494FF47A720023FFF7EAFE044620B940F20222314B1A805AE03F482E494FF47A720023FFF7DCFE044620B940F203222A4B1A8013
S274001A404CE0394827494FF47A720023FFF7CEFE044620B94FF40172234B1A803EE033482049264A0023FFF7C1FE044620B940F205221D4B1A8031E02D481A494FF47A720023FFF7B3FE044620B940F20622164B1A8023E027480021FFF70AFE00280BDA25480021FFF704FE002805DA40F2072277
S274001AB00D4B1A80002411E020480A494FF47A720023FFF793FE044620B94FF40272064B1A8003E01A480021FFF7EAFD204610BDC82D0100B42D0100D4E3FF1FD02D0100DC2D0100E82D0100BC2D010020BF0200F42D0100002E0100082E0100142E0100202E01002C2E01003C2E01004C2E0100FA
S274001B20582E0100642E0100742E0100802E01008C2E0100982E0100A42E0100B02E0100BC2E01002DE9F041A2B006460F46904649484A494FF47A720023FFF747FE034620B940F20A21464A118081E001AD454B2C460FCB07C42380284631460EF056FC28460EF068FC404B1B882B5228463B4969
S274001B904FF47A720023FFF729FE034620B940F20B21374A118063E001AD384B2C460FCB07C42380284639460EF038FC28460EF04AFC314B1B882B5228462C494FF47A720023FFF70BFE034620B94FF40371284A118045E001AD2A4B2C460FCB07C42380284641460EF01AFC28460EF02CFC224B28
S274001C001B882B5228461D494FF47A720023FFF7EDFD034620B940F20D21194A118027E01C4816494FF47A720023FFF7DFFD034620B940F20E21124A118019E016480F494FF47A720023FFF7D1FD034620B940F20F210B4A11800BE010480849104A0023FFF7C4FD034618B94FF40471044A1180CD
S274001C70184622B0BDE8F081C82E0100B42D0100D4E3FF1FD82E0100802F0100E82E0100F82E0100082F0100202F0100302F0100F049020070B5054619481A494FF47A720023FFF79BFD044620B940F21122164B1A8023E015480021FFF7F2FC144B13FA80F00EF055F883B20BB1632B02D100225C
S274001CE02A8009E082B24FF4A17101FB02F20D4981FB026252112A80092B8CBF0A4B0B4B13FA80F00EF03CF8094B1880204670BD402F0100B42D0100D4E3FF1F482F010026D9FF1F1F85EB5128D9FF1F27D9FF1FCAE0FF1F38B505460C480D494FF47A720023FFF753FD044620B940F21322094BEF
S274001D501A8009E008480021FFF7AAFC074B13FA80F00EF00DF82880204638BD502F0100B42D0100D4E3FF1F5C2F010029D9FF1F2DE9F84305464C484C494FF47A720023FFF72CFD064630B900232B6040F21522474B1A8084E047480021FFF781FC0C3087B2781CDFF8108108FA80F00DF0E0FFE2
S274001DC04FEA0069C5F80090BC1CA4B223B218F80330DBB22E2B15D0FC1CA4B223B218F80330DBB22E2B0DD03C1DA4B223B218F80330DBB22E2B05D040F21622304B1A80002655E0601CDFF8C08008FA80F00DF0B7FF09EB0049C5F80090A71CBFB23BB218F80330DBB22E2B15D0E71CBFB23BB237
S274001E3018F80330DBB22E2B0DD00434A7B23BB218F80330DBB22E2B05D040F217221C4B1A8000262CE0781C1B4C04FA80F00DF08FFF09EB0029C5F80090BB1C9BB21AB2A25CD2B22E2A13D0FB1C9BB21AB2A25CD2B22E2A0CD00437BBB21AB2A25CD2B22E2A05D04FF40672094B1A80002607E053
S274001EA00133094800FA83F00DF06AFF484428603046BDE8F88300BF642F0100B42D0100D4E3FF1F742F010020D9FF1FF8B506460F46204D204B2C460FCB07C424F8023B1B0C2370284631460EF0A0FA28460EF0B2FA1A4B1B882B5219484FF47A720023FFF74CFC034620B940F21921154A11802D
S274001F101DE0104C144B0FCB84E80F00204639460EF084FA20460EF096FA024601190F4B186810511B790B7109480D4A0023FFF72DFC034618B940F21A21064A11801846F8BD00BFF4D7FF1F842F0100802F0100B42D0100D4E3FF1F942F0100A42F010020BF020070B505460E461D4C1D4A2346AF
S274001F8007CA03C31A80204629460EF04FFA20460EF061FA184B1B88235218484FF47A720023FFF7FBFB034620B940F21B21144A11801BE00E4C2046314601F0D9F820460EF049FA0F4B1B88235220460EF043FA80B2FFF761FB0C480C4A0023FFF7A4FB034618B94FF40771054A1180184670BD74
S274001FF0F4D7FF1FAC2F0100802F0100B82F0100D4E3FF1FBC2F0100B42D010020BF020008B508480021FFF74BFB002808DB0648064944F620620023FFF7E0FB012008BD002008BDC02F0100C82F0100B42D010070B582B005463023ADF80430214822494FF47A720023FFF7C9FB034620B940F242
S2740020601D211E4A118031E01D480021FFF720FB002805DA40F21E22184B1A80002325E00830184B1B5C02AE06F8043D164C174A234607CA03C31A80204631460EF0C6F920460EF0D8F9124B1B882352204629460EF0BCF9084842F210720023FFF76EFB034618B940F21F21044A1180184602B061
S2740020D070BD00BFD02F0100B42D0100D4E3FF1FDC2F010020D9FF1FF4D7FF1FE42F0100F02F010038B505460B4C0C4A234607CA03C31A80204629460EF090F9084842F210720023FFF742FB034618B94FF40871044A1180184638BDF4D7FF1FF42F0100B42D0100D4E3FF1F38B505460D4C0E4ACC
S274002140234607CA03C323F8022B120C1A70204629460EF06BF920460EF07DF90346074A1068185106484FF47A720023FFF716FB38BD00BFF4D7FF1F003001000C300100B42D0100F8B507460C480021FFF790FA061E11DB0A4DB4B228462146FFF788FA0028F9DB0936074B985DC0B23B788342A5
S2740021B014BF00200120F8BD0020F8BD10300100C42F010020D9FF1F2DE9F04383B0804689461746334B1B68019333480021FFF767FA061E5ADB314DB4B228462146FFF75FFA0028F9DB06F109022D4B9A5C88F8002006F10B029A5C8DF8042006F10C029B5CDBB20D2B0CD0254B9A5C8DF805201D
S2740022200D369B5DDBB20D2B03D0214B9B5D8DF80630204C204A234607CA03C31A80204641460EF0F3F820460EF005F91B4B1B882352204601A90EF0E9F8194842F210720023FFF79BFA01A80DF08AFD044615480021FFF71DFA3B88E4B21349014409EB030022460DF0FFFD3B881C44A4B2B4F507
S274002290967F92BF3C804FF496733B8003B0BDE8F08300BF982D01001C300100C42F010020D9FF1FF4D7FF1F28300100F02F0100B42D0100802F010021D9FF1FF8B507460E461546144C154A234607CA03C31A80204639460EF0A2F820460EF0B4F8104B1B88235220460EF0AEF820440D492A46C6
S2740023000EF070F80C4842F210720023FFF746FA204631462A460DF0B6FD322000F09AFE2846FFF7B9F9F8BDF4D7FF1F34300100F02F010040300100443001002DE9F84F05460C4691F801808B7803EB08281FFA88F8C978207900EB0126B6B22278013A0F2A00F27E82DFE812F010006200B800A4
S274002370F2002C016C017C027C027C027C027C027C027C027C02A7012D02002E00F08C82B8F1000F00F08A8208F1FF339BB203EB060C1FFA8CFCBB4A12886245C0F0808216F0070F4FEAD60218BF0132012129706A70961CB6B2022E40F2AE82013A1FFA82FA8A444FF000094F46DFF8D0828B46C7
S2740023E01AE058F8231059B101339BB209789140084380B29C4507D90132082AF1D103E0022701E00227002005EB0902907009F10109D14500F0288258F82320002AF1D001339BB210789C45EED95A46D9E7002E00F0408242F21073984540F23D82A8F51C53113B9BB203EB060C1FFA8CFC924ACE
S27400245012886245C0F0328216F0070F4FEAD60218BF0132022129706A705618B6B28E4240F25A82013A1FFA82FA0AF1010A4FF000094F46DFF82C824FF0010B1AE058F8231059B101339BB209789140084380B29C4507D90132082AF1D103E0022701E00227002005EB0902907009F10109D14564
S2740024C000F0D28158F82320002AF1D001339BB210789C45EED95A46D9E7002E00F0F08149F64043984540F2ED817F2E00F3EC8108F5C7423F3292B2B118684B1B88994200F3E48173009BB2032129706B7002339EB2022E40F20882614B53F82210002900F0D68102235E4F04E057F8221000292B
S27400253000F0D081013292B20988080AE854581C80B2295402339BB29E42EED8ECE1002E00F0C28147F23053984540F2BF817F2E00F3BE81A8F5EA42313A92B2B1184D4B1B88994200F3B68173009BB2042129706B7002339EB2022E40F2CE81464B53F82210002900F0A8810223434F04E057F8F2
S2740025A02210002900F0A281013292B20988080AE854581C80B2295402339BB29E42EED8B2E1B8F1000F00F0938108F1FF381FFA88F8304B1B88434540F28C81334B53F82860002E00F08881FF2911D1002840F085812F4F38684FF0FF310CF01DF801233370386800210A460B460BF0CBFD12E05E
S274002610002940F07581002840F07481244F38684FF0FF310CF008F800233370386819461A460BF0B7FD2288A3782A80AB70052672E149F64043984540F25E8108F5C74808F13F081FFA88F8104B1B88434540F255810F4B53F82860002E00F05181104F38684FF0FF310BF0DFFF00233380386862
S27400268019461A460BF08EFD23682B6023792B71052649E19837010090370100184901009C370100883701001C49010094370100EC0300208C370100002E00F02B81B8F1000F00F0298108F1FF381FFA88F846441FFA86F9994B1B884B45C0F01F816679002E00F0248143464FF0000C67469449FC
S2740026F04FF0020A16E01A46531C9BB251F8222022B1994508D98342F5D105E0574603E01346574600E013460CF1010C1FFA8CF2B2420AD25A1C92B251F823000028EFD09145F0D9083398B2DEE7002F40F09480804B18684FF0FF310BF076FFB31D9BB2062B2AD9013E1FFA86FE0EF1010E784ED7
S2740027604FF0020CE319987908F1010292B256F8283000F001011970914512D9634602F101081FFA88F856F8222003420CBF002101211170C14505D95B009BB213B14246EDE7904601377745DCD1664B186800210A460B460BF0F6FC23682B6023792B710526B1E0002E00F0AF8049F640439845ED
S2740027D040F2A68008F5C74909F13F091FFA89F909EB0602584B1B889A4200F39B8008F5C74340339BB2554A52F82920002A3FD008EB060101F5C7413F3189B24F4806E05A1C92B250F82330002B33D013468B42F6D100272FE0914609F1010292B25EF82910E0184078E65C00EB062008800233C7
S2740028409BB26245EFD13F4B186800210A460B460BF0A8FC0023E25CEA540133052BFAD101E0012700E005263FB1237863F07F032B706F700220BDE8F88F3046BDE8F88F022700E002272F4B18684FF0FF310BF0D3FE464406F5C74C0CF13F0C1FFA8CFC0623DFF8A8E0BFE70327DEE70227DCE767
S2740028B00227DAE70327D8E70227D6E70227D4E70327D2E70227D0E70227CEE70227CCE70227CAE70227C8E70327C6E70227C4E70227C2E70227C0E70227BEE70227BCE70227BAE70227B8E70227B6E70327B4E70327B2E70327B0E70227AEE70227ACE70227AAE70327A8E70227A6E70227A4E708
S2740029200227A2E70227A0E73046BDE8F88F054B18684FF0FF310BF07FFE36E79837010094370100EC030020184901009C37010038B505460C464B79013B097903EB01231BB2073A934213D1A379012B12D10730E11DFFF7E3FC23682B60013080B240F307232B716871A379AB71063080B238BD8F
S274002990002038BD002038BDB5EEC00AF1EE10FA5CBF024B83ED000A704700BF0004FF1FB5EEC00AF1EE10FA5CBF024B83ED000A704700BF0804FF1FB5EEC00AF1EE10FA5CBF024B83ED000A704700BF0404FF1F0023034A1360034A1360034A1360704758DAFF1F50DAFF1F54DAFF1F384BD3EDEB
S274002A00006A60EE266A374BD3ED007A70EE277A9FED357AF4EEC77AF1EE10FA02DD83ED007A0DE09FED317AF4EEC77AF1EE10FA03D42C4BC3ED007A02E02D4A294B1A602C4B93ED007A274BD3ED007A67EE277A77EEA67A284B93ED007A30EE477A274BD3ED006A27EE267A37EE277A244BD3ED35
S274002A70007AB4EEE77AF1EE10FA08DCF1EE677AB4EEE77AF1EE10FA58BFF0EE477A1D4B93ED007A77EE877A9FED1B7AF4EEC77AF1EE10FA02DD83ED007A0DE09FED177AF4EEC77AF1EE10FA03D4124BC3ED007A02E0134A0F4B1A600E4BD3ED007AFCEEE77A17EE903A0380074B83ED000A70474D
S274002AE00004FF1F58DAFF1F00007A4400007AC400007AC40804FF1F54DAFF1F0404FF1F0C04FF1F50DAFF1F00FF7F4700B8084700B8084710B5164A136823F0807323F4E06343F48073136012480021012206F01DFD32240F480121642281601346013B9BB2002BFBD141601346013B9BB2002BE8
S274002B50FBD1631E13F0FF04EFD1054A136823F0807323F4E06343F40073136010BD00BF00A0044040F00F4000B583B0FFF7CAFF0123084A1370FE228DF8082002AA00920193054803210022134606F095FC03B05DF804FB4000CC420060064070B584B004ABE32203F8042D009301230193174837
S274002BC003210022134606F07FFC08B1FFF7A2FF124E03AD009503240194304621460022134606F0E5FB9DF80D308DF80E309DF80C3043F004038DF80D30E2238DF80C3000950194304621460022134606F05CFC08B1FFF77FFF04B070BD00BF006006402DE9F04184B0134E03AD00950324019469
S274002C30304621460022134606F0BAFB9DF80C809DF80D70F3238DF80C30009501230193304621460022134606F036FC18B907EB082080B202E0FFF755FF002000B204B0BDE8F081006006402DE9F04184B0134E03AD009503240194304621460022134606F08EFB9DF80C809DF80D70F1238DF84A
S274002CA00C30009501230193304621460022134606F00AFC18B907EB082080B202E0FFF729FF002000B204B0BDE8F0810060064010B4064A13785C1C1470CB5C0370181C18BF01205DF8044B704700BFF0DAFF1FA0F13003362B2AD8DFE803F01E1E1E1E1E1E1E1E1E1E292929292929291C2B218C
S274002D1023252729292929292929292929292929292929292929292929292929291C2B21232527000A2070473038C0B270470C2070470D2070470E2070470F207047FF2070470B20704700BF70B582B004460D4616460DF107002946A047034688B19DF80730532B02D0002BF3D109E00DF107003D
S274002D802946A047034620B19DF80720327000E00023184602B070BD2DE9F04182B005460F4690460DF10700A8470446D0B19DF80700FFF79DFF0646FF2810D00DF107003946A847044668B19DF80700FFF790FFFF2806D040EA061688F8006002E0002400E00024204602B0BDE8F0812DE9F04306
S274002DF083B004460023C360006861680DF10502FFF7AAFF0346002800F0F8809DF805302372206861680DF10702FFF7BDFF0346002800F0EB809DF807509DF80510A1F13102082A00F2E280DFE812F0090009000900E000E000E00091009100910030398DF805100026206861680DF10602FFF73A
S274002E609BFF0346002800F0C9809DF80630E26843EA0222E2601D44EDB29DF80730013B8DF807300136F6B29DF80530B342E2D202F0030622F00303E3609DF8073033448DF807304EB1238B3BB101230022FF2761698F54D9B28E420CD8B0469DF80730013B9E4236DAB146238BB34288BF374669
S274002ED008D82FE00132591C88B2218B9942ECD90346E5E76269206861683A44FFF754FF0346002800F082800137FFB29DF80730013B9F4208DB1A4600E01A46904511DA218B494504D80DE0228BBA42E2D8F4E76069825D1544EDB20136F6B2B34201DD8E42F6D3206861680DF10602FFF72CFF5C
S274002F40034600285AD09DF80620ED43551B15F0FF0F50D1228BB2424FD326824EE0C1F13A018DF805100026206861680DF10602FFF712FF0346002840D09DF806301D44EDB2E26843EA0223E3609DF80730013BDBB28DF807300136F6B29DF80520B242E2D25A1E8DF80720012B12D92068616805
S274002FB00DF10602FFF7F0FE0346F8B19DF806301D44EDB29DF807305A1E8DF80720012BECD8206861680DF10602FFF7DDFE034660B19DF80630ED435B1B13F0FF0F14BF0023012302E0002300E00023184603B0BDE8F0832DE9F041884617461E460E4C0E4B23606060002020722082069D65614D
S274003020E060782323830A4B18702046FFF7DEFE054630B1237A88F80030E3683B60238A33802846BDE8F081D4DAFF1FD12C0000F0DAFF1F08B5054BA3FB0020C008002808BF01200BF024FF08BD00BFCDCCCCCC10B40A4BD3E90023013243F1000380B20021801841EB0301044CD4E900238B42C1
S27400309008BF8242F9D35DF8044B704750DFFF1F084B41F254029A58026041F258029A58426041F25C029A58826003F583531B68C36070470070044070B44E1EB6B271B101360644FF221146084D094C10F8013B4B40E95C5140E25CB042F7D101E0FF22114602EB012080B270BC704748350100E3
S2740031004834010010B471B141184FF0FF33094C10F8012B5A40D2B254F8222082EA13238842F5D101E04FF0FF33D8435DF8044B704700BF4830010014E013F0800F03D10131038002300DE0BF2B0BD903F01F031B0203804A789200D2B213439B1020F8023B02310B78002BE7D10380704700BF55
S27400317070B582B005460C4600238DF806301E4638E013F0800F05D101348DF804308DF8056005E08DF8043063788DF8053002340DF1020001A9FFF7C7FFBDF80230190B092905F1010294BF303137312970C3F30320092802F1010194BF303037301070C3F30310092801F1010294BF3030373000
S2740031E0087003F00F03092B02F1010594BF3033373313702378002BC3D12B7002B070BD08B54FF4897007F0B3FD4FF4FA70FFF721FF4FF4897007F08FFD6420FFF71AFF08BD00BF70B506460D4600242046214607F0C4F80828F9D0002031462A4607F097F870BD00B583B002AB03F8010D184609
S2740032500121FFF7E7FF03B05DF804FB2DE9F84305460DF0F8F886B2134B1B881B1A9BB203F101091FFA89F947F6FE72934211D800240E4F36B20FFA89F91FFA84F83819294632460DF0FCF838B1013423B29945F3DC04E04FF6FF7003E0404601E04FF6FF7000B2BDE8F883F4DAFF1F28DCFF1FF4
S2740032C02DE9F84F80461849D1E90067B61847EB0307D1E90023BB4208BFB24218D2DFF84C904FF00A0B8A464846FFF7B7FF002811DA4046FFF7B2FF00280FDA5846FFF7A9FEDAE90045BD4208BFB442ECD308E00020BDE8F88F0020BDE8F88F0120BDE8F88F0020BDE8F88F50DFFF1F4836010066
S27400333030B58FB00146154B01930024029403940494059406940794089409940A940B940C94ADF8344001AD28460DF067F828460DF079F80A4B1B882B5228460DF073F8084B1C8081B22846FFF754FF06484FF4FA720023FFF79CFF0FB030BD41542B004C360100F4DAFF1F503601002DE9F0470B
S2740033A06420FFF757FE0022224B1A802248FFF7BFFF804600283AD14FF002094FF00A0A1E4E40F6B83400251D4F5046FFF742FE2B20FFF737FF4FF49670FFF73BFE2B20FFF730FF4FF49670FFF734FE2B20FFF729FFD6E90001001941EB05010CE03B78DBB2612B08D16120FFF71CFF0A20FFF79A
S27400341021FE4FF001080AE0D6E900238B4208BF8242ECD309F1FF3919F0FF09CDD14046BDE8F087F4DAFF1F5436010050DFFF1F28DCFF1F08B54FF4897007F091FC0248FFF76EFF08BD00BF5836010008B50448FFF766FF034864220023FFF729FF08BD6436010050360100F0B595B00023079353
S274003480089309930A930B930C930D930E930F93109311931293ADF84C30029303930493059306937B48FFF743FF002800F091807948FFF73DFF002800F08B807748FFF737FF054607AC764B93E8030007908DF82010204673490CF0A9FF20460CF0BBFF714B1B882352204670490CF09FFF002D99
S2740034F000F0848007A8FFF71BFF04466C4A07AB07CA03C31A7002A86A496B4B1A880CF069FF07A802A90CF089FF002C7DD007AC2046FFF705FF0746644B93E803000790ADF8201001230093019302A860490A220CF050FF204602A90CF070FF20460CF082FF064625185B4B07CBA0516960AA603F
S2740035601A889B78AA81AB73002F77D007AC2046FFF7DEFE0546544B93E8070084E80700204602A90CF052FF20460CF064FF464B1B88235220460CF05EFF03464B4A1068E050002D71D007A8FFF7C2FE00286CD04748FFF7BDFE002867D04648FFF7B8FE18B14548FFF7B4FE00E0002000F00100A8
S2740035D05DE007AC324B93E8030007908DF82010204630490CF022FF20460CF034FF2E4B1B88235220462D490CF018FF2C4A07AB07CA03C31A7002A82A492B4B1A880CF0E9FE07A802A90CF009FF07AC274B93E803000790ADF8201001230093019302A823490A220CF0D6FE204602A90CF0F6FE12
S27400364020460CF008FF064625181E4B07CBA0516960AA601A889B78AA81AB7307AC1A4B93E8070084E80700204602A90CF0DEFE20460CF0F0FE0C4B1B88235220460CF0EAFE0346114A1068E05000209EE715B0F0BD00BF6C3601007436010080360100A036010060150020F02F0100CC16002072
S2740036B0A83601004030010020180020B4360100BC360100C8360100D8360100E4360100E83601000437010010370100704700BF704700BF08B50020014608F0A9FB28B10020014608F0D6FB01F01CFF08BD00BF704700BF4FF0500080F31188FEE700BF4FF0500080F31188FEE700BF704700BFA4
S274003720704700BF08B5002007F010F908BD00BF08B5012007F00AF908BD00BF704700BF084B1B881BB2B3F5967F0ADA054A13889BB2591C89B211801BB2034A1178034AD15470474CDAFF1FF0D7FF1F20D9FF1F08B5002008F068F908BD00BF064B1B680122C3F80C210549D1E90023013243F178
S2740037900003C1E9002370470C5E010050DFFF1FFEE700BF084B1B881BB2B3F5967F0ADA054A13889BB2591C89B211801BB2034A1178034AD1547047F4DAFF1FF8DAFF1F28DCFF1F704700BFBFF34F8F054AD16801F4E061044B0B43D360BFF34F8F00BFFDE700BF00ED00E00400FA0500B583B0FD
S2740038000123009300230193264827494FF42F720BF0B0F8012800D0FEE70323009300230193224822494FF42F720BF0A3F8012800D0FEE702230093002301931D481E494FF42F720BF096F8012800D0FEE70223009300230193194819494FF42F720BF089F8012800D0FEE70123009300230193A1
S274003870144815494FF42F720BF07CF8012800D0FEE70123009300230193104810494FF42F720BF06FF8012800D0FEE703B05DF804FB00BFE1540000183701003168000020370100F9700000283701008986000030370100297F000038370100BD8200004037010008B5154BD3E90001144BD3E975
S2740038E00023994208BF90421FD2104BD3E90001104BD3E90023994208BF904215D20B4BD3E900010C4BD3E90023994208BF90420BD2064BD3E90001084BD3E90023994208BF904201D206F05FFB08BD50DFFF1F1004FF1F5004FF1F3004FF1F4004FF1F0D4B1B680D4A934202D90D4A13600BE0CC
S2740039500C490B4B196000220B4B1A61064B5A68120C12045A6019600123074A136102F580721361704700BF00D003407F4668585CDEFF1F8046685880027A4200B583B0002008F001FA0B48FFF782FBFFF7D0FF0120694608F0A6FA0120694608F0E4FA05490120087003234B7008F057FB03B0A8
S2740039C05DF804FB40DFFF1F84DEFF1F0E4B1A680E4B1B68934216D00D49097899B9013A934203D10133094A13607047094900230B61064B1868044B5A68120C12045A60186001230B61704700D003405CDEFF1F5CDDFF1F80027A4238B501200021444A08F040FB0120002108F058FB414C25783A
S274003A300120002108F08AFB3F4B23F81500012000213E4A08F02EFB0120002108F046FB25780120002108F079FB394B23F815002378013303F0070323709FED367AF0EE477A00233049324A585A06EE900AF8EEE66A76EEA77A985A06EE900AF8EEE66A37EE267A0233102BEED12B4BC3ED007AAC
S274003AA02A4B83ED007AB4EE007A67EE877A9FED287AC7EE277AB7EE007A37EEC77A17EE100AFCF777FE41EC100B0BF07BFE51EC100BFDF75DF907EE900AF5EE407AF1EE10FA03D11B4A184B1A6012E09FED1A7AC7EE277A9FED197A67EE876A77EEC77AC6EEA77ADFED166A77EEE67A0E4BC3ED65
S274003B10007A0E4B93ED007AF4EE007A67EE277A9FED107A67EE877AC3ED007A38BD00BF90680100A406FF1F9406FF1FA06801007006FF1F0000000058DDFF1F18DFFF1F000080470000C84100B0564533139543339388433333D33808B54A4B1B78002B52D1494B1B788BB9484B1B7873B9484B9B
S274003B80D3ED007A9FED477AF4EEC77AF1EE10FA04DCF5EEC07AF1EE10FA0CD5424BD3E900014EF660220023121843EB01033F49C1E9002308BD3C4BD3E900233B49D1E90001994208BF904262D2394BD3ED007A384BC3ED007A9FED387AF4EEC77AF1EE10FA55D5B7EE087AF4EEC77AF1EE10FA6E
S274003BF04EDD2D4BD3E90001304A0023121843EB01032A49C1E9002340F2053007F094F80122204B1A7008BD1F4B1B782BBB1F4B1B7813BB224B93ED007AF1EE027AB4EEE77AF1EE10FA18DC194BD3ED007A9FED207AF4EEC77AF1EE10FA0EDCF5EEC07AF1EE10FA09D4144BD3E900231349D1E9BF
S274003C600001994208BF904212D20F4BD3E900014EF660220023121843EB01030B49C1E9002340F2053007F073F80022014B1A7008BD00BFB106FF1FA1DFFF1F5CDDFF1F58DDFF1F00000C4250DFFF1F2804FF1F18DFFF1F94DEFF1F9999794080EE36000000204208B57B4B1B789BB1052007F0BE
S274003CD04FF80C2007F04CF8122007F049F8132007F046F840F2131007F042F80D2007F03FF808BD704B1B7843B9052007F01CF8002200236D49C1E9002316E06C4BD3E900236A49D1E90001994208BF90420CD2052007F041F8664BD3E9002312F5FA7243F100036149C1E90023614BD3E900233A
S274003D406049D1E90001994208BF90421AD20C2007F02AF85C4B1B8853B1594BD3E9002312F5FA6243F100035649C1E9002309E0534BD3E9002312F5967243F100035149C1E90023514B1B88012B03D10D2006F0D3FF02E00D2006F0EBFF4D4B1B78D3B1474BD3E900234B49D1E90001994208BFE7
S274003DB090427DD2424BD3E9002312F5FA7243F100034449C1E90023122006F0EDFF132006F0EAFF08BD404B1B78F3B1122006F0C7FF132006F0C4FF354BD3E900233949D1E90001994208BF904259D240F2131006F0D2FF2E4BD3E9002312F5FA7243F100033049C1E9002308BD304B1B785BB306
S274003E2040F2131006F088FF254BD3E900232949D1E90001994208BF904239D2204BD3E9002312F5FA7243F100032249C1E90023234B1B88012B06D1122006F0A5FF132006F086FF08BD022B22D1132006F09CFF122006F07DFF08BD002200231549C1E9002340F2131006F073FF164B1B88012B37
S274003E9006D1122006F050FF132006F069FF08BD022B05D1122006F063FF132006F044FF08BD00BF5CDDFF1F37DFFF1F6006FF1F50DFFF1F8006FF1FD2E3FF1F82DFFF1F36DFFF1FB806FF1FA2DFFF1F90DEFF1F5CDFFF1F84DFFF1F10B582B05D4B1B8813B15D4B1B887BB95C4B1B884FF6FF72B1
S274003F00934209D04EF6EE62934205D00023584A1370584A1380A3E0574B1B7833B1554B1988534A117000221A8099E0504B1B7823B1504A138000224D4B1A704B4B1B8841F21112934200F08B80032B2DD003D8012B45D00BD913E04EF6EE6293425AD04FF6FF72934243D0042B75D12EE00122EC
S274003F70424B1A7000233F4A1380414A13806BE0404B1B88002B67D002223A4B1A8000233B4A13800121394A11700093019318461D211A4603F0C4FC56E00322314B1A800023334A13800121304A11700093019318461C211A4603F0B3FC45E00422294B1A8000222A4B1A800122284B1A703BE0C9
S274003FE00123244A1380264A1380244A137033E0254BD3E9000110F57A7041F10001234BC3E90001204CD4E900238B4208BF8242F9D3FFF7E1FB03F077FB03F00DF903F0E3FA002300930193184650211A4603F07FFC154BD3E9000110F5FA6041F10001134BC3E90001104CD4E900238B4208BFF5
S2740040508242F9D3FFF7C0FB41F21112034B1A8002B010BDE4DFFF1F84DFFF1F3A04FF1FB006FF1F82DFFF1F5CDDFF1F2004FF1F80DFFF1FCCDFFF1F50DFFF1FA806FF1F8806FF1F00B583B00E4B1B784BB100230C4A13700093019318463F211A4603F03FFC0023084A1380084A1370084A137057
S2740040C0084A1188084A1180084A5360538103B05DF804FB2004FF1F80E0FF1F90DEFF1F36DFFF1F84DFFF1F5CDFFF1F60DDFF1F08B5234B1B780BB30022214B1A70214B1B88214A1370DBB2204A1380204B1868FCF750FB18A3D3E90023FCF711FE18B11C4B1A681A4B1A6000231B4A13701B4A48
S27400413013701B4A137001221A4B1A701A4B1B881BB90022194B1A8008BD194A13800F4B1B880D4A12789A4202D00A4A138003E0084B1A88094B1A80084B1A88064B1A7008BD00BFAFF300809A9999999999A93F2004FF1FCCDFFF1F6906FF1F5CDFFF1FF4DFFF1F30E0FF1F1CE0FF1FA2DFFF1FEF
S2740041A036DFFF1F90DEFF1F68E0FF1F82DFFF1F80E0FF1FAFF3008000B583B0A64B1B78002B00F083800022A34B1A700122A34B1A80A34B1B882BB90522A24B1A8002229E4B1A80A04B1B8883B99C4B1B88022B03D006229B4B1A8008E00123964A13709A4A13706422974B1A801CE10023984AF7
S2740042101360984A1360984900230A4642F8043B4B60043242F8043B42F8043B42F8043B42F8043B42F8043B42F8043B42F8043B13608E490A4642F8043B4B60043242F8043B42F8043B42F8043B42F8043B42F8043B42F8043B42F8043B136084490A4642F8043B4B60043242F8043B42F8043B55
S27400428042F8043B42F8043B42F8043B42F8043B42F8043B13607B4B1868FCF78BFA6CA3D3E90023FCF74CFD18B1774B1A68754B1A600122754B1A80002375490B7075490B7075490B70754B1A70BCE0734B1B78002B00F0B8806E4B93F90030002B40F3B28000226A4B1A705C4B1B88012B38D110
S2740042F0664B1A88531E9B00604919446848006808605D490B4467490968196000230093019318461A2103F00BFB534B1B88002B6FD002224D4B1A80584B1A88013A524B03EB82035C4A92ED007A5C4AD2ED007A37EE677ADFED5A7A27EE277AF7EE007A77EE277A93ED007A67EE277AC3ED007A1F
S2740043603FE04A4B1B88013B454A02EB83024C49096811603A4A128882B13F4A02EB830393ED007A474AD2ED007A77EE277AB6EE007A67EE877AC3ED007A05E0364A02EB8303404A12681A60384B1A8800230093019318461B2103F0BBFA294B1B8803B30122264B1A801CE0294B93ED007A77EE57
S2740043D0877AC3ED007A04E02C4A13800022214B1A802A4B1B88013B07EE903AF8EEE77A1F4B93ED007AC7EE277A1E4BC3ED007A21E022490B88581E284AD2ED007A1A4A02EB8002244890ED007A37EE677ADFED246A27EE267AF7EE006A37EE267AD2ED006A26EE877A82ED007A5A1C92B20A80A7
S2740044400A2AC1D9C8E703B05DF804FBAFF300809A9999999999A93F2004FF1F5CDFFF1F28DFFF1F82DFFF1F98DEFF1F74DFFF1F6C06FF1FF8DFFF1FBC1EFF1F9C12FF1FC412FF1FF4DFFF1F30E0FF1F80E0FF1F1CE0FF1FA2DFFF1F36DFFF1F90DEFF1F24E0FF1F28E0FF1F14E0FF1F70E0FF1F84
S2740044B00086AF3BAFF300800F4B1B7873B100230D4A13700D4A13800D4A13700D4A137001210D4A11700D4A13707047084B93F90030002B06DD0023074A1370034A1380074A1380704700BF2004FF1F80E0FF1F1CE0FF1FA2DFFF1F36DFFF1F90DEFF1F82DFFF1F0000000000B583B06C4B1B7897
S274004520002B38D000226A4B1A706A4B1B8873B9694B1B8823B9694B1A88664B1A800BE0012B0CBF01220222624B1A8004E003F0010301335F4A13800022614B1A70614B1868FCF727F958A3D3E90023FCF7E8FB18B15D4B1A685B4B1A6005225B4B1A8000235B4A13705B4A13705B4A1370012200
S2740045905A4B1A7095E0524B1B78002B00F09180012B1AD14B4B1B88012B0AD10222544B1A80494B1B88012B22D80122474B1A801EE002224F4B1A80434B1B8823F002039BB2ABB9414B1A8012E03E4B1B88012B06D1474B1B887BB10022454B1A8007E0022B13D1434B1B8883B10022414B1A806D
S274004600344B1B88012B09D13D4B1A880023009301931846522103F08BF908E0394B1A880023009301931846532103F081F92A4B1B88ABB9274B1B88012B07D1314B1B881BBB264B1B88012B1FD137E0022B35D12C4B1B88CBB9214B1B88022B15D12DE01C4A1288012A03D1264A12886AB905E0E8
S274004670022A06D1224A1288C2B904E0022B1DD103E0022A1AD1012B18D11D4B1B886BB91C4B1B8853B90F4A138001210C4A1170194A13706422194B1A800AE00B4B1A88084B1A800122154B1A8002E00122044B1A7003B05DF804FB9A9999999999A93F2004FF1F5CDFFF1FD4DFFF1F84DFFF1F72
S2740046E01CDFFF1FF4DFFF1F30E0FF1F80E0FF1F1CE0FF1FA2DFFF1F36DFFF1F90DEFF1F28DFFF1F98DEFF1F74DFFF1F82DFFF1F10B582B0254B1B78002B38D1244B1C88012C02D1234B1B6804E0022C06BF224B1B680023214A1278511E0C2927D8DFE801F0070707070707070707070F171F0097
S2740047500093002001903621234603F0E9F816E00020009001903821224603F0E1F80EE00020009001903921224603F0D9F806E00020009001903721224603F0D1F800230A4A13700A4A1370044A1370094A13700122094B1A7002B010BD00BF36DFFF1F84DFFF1FC8DFFF1F7CDFFF1FD6DFFF1F84
S2740047C01CE0FF1F90DEFF1FA2DFFF1F08B51D4B1B78EBB11C4B1B88BBB11C4B1B88012B08D14FF4806006F0A7FA40F2014006F0BFFA08BD022B23D140F2014006F09CFA4FF4806006F0B4FA08BDFFF781FF08BD00230D4A13800E4A13704FF4806006F0A7FA40F2014006F0A3FA0A4B1B783BB162
S274004830094B93F90030002B02DD0022054B1A7008BD00BF90DEFF1F80E0FF1F5CDFFF1FD6DFFF1FA2DFFF1F1CE0FF1F2DE9F04383B04F4B1A684F4B1B68134402A840F8043D0BF0B5FA82684368C3EB03139B004FF4616606FB023602681644464B93F80080464BA3F1080203F1780701244FF014
S2740048A0000C9146118907290DD08569A9420AD0092903D1013D042D05D912E0082910D1062D00D06DB953F8081C8E4209DD53F8041C8E4205DAB9F80A10614584BFA0468C460134E4B20C330C32BB42D9D12E4B83F800802E4B1A682E4B1B68D1188E420DDD2B4949680A4413449E4207DA284B40
S2740049105B899C4503D20B21234A11709C46264B1A68264B1B68D1188E420DDD224949680A4413449E4207DA1F4B5B899C4503D20C21194A11709C461D4B5B89E3B11D4A12684AB91A4A526816441A4A16600D21114A11709C4612E0921B15494A60002A05DC00234B604B81124A136007E00D2167
S274004980094A11709C4602E000220E4B1A60BCF10A0F34BF60460A2003B0BDE8F08300BF5CDEFF1F24DFFF1FD6DFFF1FA4DEFF1FB4DFFF1F60DEFF1FA4DFFF1F88DEFF1F60DDFF1F9006FF1F30B583B08A4B1B78002B31D00022884B1A70884B1B886BB9874B1B8853B9874B1A800123824A1370D0
S2740049F0854A13706422854B1A809AE100230093019318463E211A4602F092FF804B1A887C4B1A807F4B1868FBF7CCFE74A3D3E90023FCF78DF918B17B4B1A68794B1A6000227A4B1A707CE1794C2588FFF70EFF2080002800F05F81EDB2A84267D0704B1B88012B2FD1694B1B88002B55D1684B99
S274004A601B88E3B102226F4B1A80694B1A806E4B1B886E4908885B006D4981FB034101EB41056C490C6800946B490C680194003018BF01203B215B1B02F04AFF35E00022584B1A800123544A1370574A13706422564B1A803DE1022B27D1514B1B8823BB4E4B1B88ABB10122564B1A80504B1A8066
S274004AD0564B1888544B1B88564909680091564909680191003018BF01203B2102F020FF0BE00022434B1A8001233F4A1370424A13706422414B1A8013E100234B4A13704B4A1370414A137001224A4B1A704A4B1C784A4B1B78A34200F0AE80484B1B78002B37D1364B1D88012D02D13D4B1B6880
S274004B4004E0022D06BF3C4B1B680023621E0C2A28D8DFE802F00707070707070707070710182000009300200190362122462B4602F0DEFE16E000200090019038212A4602F0D6FE0EE000200090019039212A4602F0CEFE06E000200090019037212A4602F0C6FE1A4B1B88012B02D1214A1068B0
S274004BB004E0022B06BF204A10680020234A1278511E0C2960D8DFE801F007070707070707070707454E570011490C880093019000203221234602F0A3FE4DE0AFF300809A9999999999A93F2004FF1F28DFFF1F98DEFF1F5CDFFF1F74DFFF1F82DFFF1F84DFFF1FF4DFFF1F30E0FF1F36DFFF1F97
S274004C2080E0FF1F16DFFF1FD4DFFF1FECDFFF1F56555555C8DFFF1F7CDFFF1F1CE0FF1FA2DFFF1F90DEFF1FB206FF1FD6DFFF1F6806FF1F384A1288009000200190342102F066FE10E0344A1288009000200190352102F05DFE07E02F4A1288009000200190332102F054FE2C4B1B88012B04D1E5
S274004C902B4B1B88022B2ED105E0022B2BD1284B1B88012B27D1274B1B784BB9264BD3E900232649D1E90001994208BF90421AD2214BD3E90023224909684FF47A7000FB01F1521843F100031C49C1E9002300231C4A138001211C4A117007211B4A1180144A13701DE00022124B1A70104B1A8804
S274004D00144B1A8011E001220E4B1A700E4BD3E900230F4909684FF47A7000FB01F1521843F100030949C1E900230D4B1A780D4B1A7003B030BD00BF80E0FF1FD4DFFF1F84DFFF1F6806FF1F50DFFF1F68DFFF1F64DFFF1F5CDFFF1F2004FF1F82DFFF1FD6DFFF1FB206FF1F08B5294B1B78E3B1BE
S274004D700023274A1370274A13700121264A1170264A1370264A1370264A1380264BD3E90023264909684FF47A7000FB01F1521843F100032249C1E90023FFF757FD214B188000282AD0204B1B7863B91C4BD3E9002352EA03011ED01749D1E900018B4208BF824217D2144BD3E90023134909683F
S274004DE04FF47A7000FB01F1521843F100031049C1E900230022114B1A700122044B1A7007220F4B1A8000220B4B1A7008BD00BF2004FF1F1CE0FF1FA2DFFF1F36DFFF1F90DEFF1F5CDFFF1F50DFFF1F64DFFF1F68DFFF1F80E0FF1F74DFFF1FD6DFFF1F82DFFF1F08B5184B1B88042B1AD007D8B4
S274004E50012B0ED053B1022B0ED0032B0FD01AE0072B12D00BD3642B12D014E0FFF712F908BDFFF7A9FD08BDFFF73AF908BDFFF79BF908BDFFF718FB08BDFFF745FB08BDFFF76AFF08BD0023044A1380044A1370044A137008BD00BF82DFFF1F80E0FF1F90DEFF1F36DFFF1F70B4F7EE007AB4EE1A
S274004EC0E70AF1EE10FA52D92D4B03F11C02DFED2D7AB3EC017A77EE877A9342F9D1FCEEC06A16EE903A9BB207EE103AB8EEC77A87EE277ABCEEC77A17EE104AA4B28E2C37D806EE904AB8EEE67A67EE877A70EE677AC4EBC404A4B2B7EE007AF4EEC77AF1EE10FA1BDD164E174DF0EE476A06EBE7
S274004F30800393ED007A77EEC77A411C81FB0523C818CB17C3EBA003C3EBC303C91AC8B20134A4B2F4EEE67AF1EE10FAE7DCF5EEC07AF1EE10FA07D5601E80B205E0002003E040F2E73000E0204670BC704700BF68DEFF1F00000000932449922DE9F04F8DB0A54BD3ED007AF5EE407AF1EE10FAA8
S274004FA021D0A24B93ED007A37EE877A83ED007A9F4B83ED007A9F4B19689F4B196002219E4B19809E4BC3ED007A9E4B1B888DED007A00200190462117EE902A02F0A8FC0022914B1A60984BD3ED007AF5EE407AF1EE10FA21D0954B93ED007A37EE877A83ED007A924B83ED007A8A4B1968914B7E
S27400501019600221904B1980904BC3ED007A0021894B1960874B1B888DED007A00200190472117EE902A02F07BFC894801780131884A81FB02230B449B10C3EBC303CB1A0993DEB20670844B1A688449096802EB010A5A68524403925B890593DBB207937F4A13687F49096803EB010953684B4444
S274005080049352890692D4B208944FF0000C6146DFF80CE20EF1780506F1FF385FFA88F8DFF8ECB18A4508DA039A8A4207DB059B002B079F08BF002702E0002700E00027894580F22A81049C8C42C0F22681089A069B9F4238BF17461FE11C46188907280CD0B0420AD0092803D1B8F1040F05D9D3
S2740050F010E008280ED1062E00D05EB952F8080C884207DA52F8040C884203DB6089874238BFC7B20C320C33AA42DED10A2F28BF0A275CFA87FC3C315945BBD1099CE2B2514B03EB8203514AA2FB0C1C4FEADC0C07EE90CAB8EE677A4D4AD2ED007A67EE277AC3ED007A374B1A684A4B1B68134429
S2740051600CA840F8043D0AF03BFE0446464B1B88012B02D0022B42D0C3E0304B1B887BB1007E2A4B93ED000AFFF796FE3F4B1880284B1B683E4A02FB00303E4B186006E000223A4B1A80234B1A683A4B1A602A4B1B88E3B1384D2988A3691944294A81FB0223CA18CB17C3EBA203C3EBC303C81A1B
S2740051D0C0B21E4B93ED000AFFF76EFE28802D4B1B682B4A02FB00302C4B186099E00022294B1A800F4B1A68284B1A6091E0164B1B88002B4ED0007E104B93ED000AFFF753FE214B1880074B1B681D4A02FB00301C4B186045E000BF60DFFF1FC8DFFF1F70DFFF1F5CDEFF1F20DFFF1F28DFFF1F3C
S2740052409CDFFF1FD4DFFF1F64DEFF1F7CDFFF1F3CDFFF1FD0DFFF1F98DEFF1F58DFFF1FC006FF1F93244992B4DFFF1F60DEFF1FA4DFFF1F88DEFF1F68DEFF1FCDCCCCCCF4DFFF1F24DFFF1F84DFFF1FC0DFFF1F80510100B0DFFF1F14DFFF1F38DFFF1FA4DEFF1F0022204B1A80204B1A68204B56
S2740052B01A60204B1B88E3B11F4D2988A36919441E4A81FB0223CA18CB17C3EBA203C3EBC303C81AC0B21A4B93ED000AFFF7ECFD2880134B1B68174A02FB0030164B186017E00022104B1A800C4B1A68124B1A600FE000230C4A1380074A1380074B1B68074A13600C4A136003E07246AEF10803FD
S274005320DBE60DB0BDE8F08F14DFFF1F5CDEFF1FB0DFFF1F28DFFF1FC0DFFF1F93244992C8DFFF1F8051010038DFFF1F2DE9F04182B0574C2378DBB2012B29D140F2073005F006FD534B1B780BB1FEF735FA524B1B786BB10023504A1370504A108800930193C01A18BF012005211A4602F0D0FA4B
S27400539000224B4B1A704B4BD3E9000141F288320023121843EB01034749C1E900237BE00122404B1A70404B1B7833BB414BD3E900234149D1E90001994208BF90426BD23C4BD3E9000142F210720023121843EB01033949C1E90023384B1888384B1A68002300930193C01A18BF0120042102F027
S27400540097FA01222C4B1A704EE0324B1B78C3B92C4BD3E900232C49D1E90001994208BF904241D201222B4B1A70264BD3E90001294A0023121843EB01032349C1E9002332E0264B1B784BB11E4BD3E900231E49D1E90001994208BF904225D2DFF86480194D42F21076002704F0BEFD40F206303F
S27400547005F062FC40F2073005F07AFC2378DBB2012B07D0D8E90023921943EB0703C5E90023E9E7D8E90001D5E900238B4208BF8242E1D2FEF798F902B0BDE8F08100BF6000E642B306FF1F5CDDFF1FC2DFFF1FA1DFFF1F50DFFF1F1804FF1F76DFFF1F94DEFF1FA0DFFF1FC0D40100C8E0FF1FBD
S2740054E038B5FEF753FA124B1B783BB90A25104C2846FDF7AFFD2378002BF9D00A24FEF765FAFEF789FAFEF72FFBFEF7DBFBFEF7EBFCFFF797FCFFF739FDFFF757F9FFF715FFFEF7D7F9204609F0C2FCE7E700BF6204002008B540F2053005F019FC40F2073005F0F9FB0122014B1A7008BD00BF65
S274005550A1DFFF1F00B583B0FDF70EFBFA20FDF787FDFDF723FBFDF73BFA0020014606F04FFB0020694606F0BDFC0020694606F0FBFC0C4901230B7003234B70002006F06DFD094B1B8807EE903AF8EEE77A074B93ED007A67EE877A054BC3ED007A03B05DF804FB20E0FF1FE4DFFF1F04E0FF1F3F
S2740055C030E0FF1F0000000010B52DED048BCA4C00200146224606F065FD0020014606F07DFD0020014606F0B1FD07EE100AB8EE478A00200146224606F054FD0020014606F06CFD0020014606F0A0FD07EE100AF8EE477A37EE888A00200146224606F041FD0020014606F059FD0020014606F05F
S2740056308DFD07EE100AF8EE477A37EE888A00200146224606F02EFD0020014606F046FD0020014606F07AFD07EE100AF8EE477A37EE888A00200146224606F01BFD0020014606F033FD0020014606F067FD07EE100AF8EE477A37EE888A00200146224606F008FD0020014606F020FD002001467A
S2740056A006F054FD07EE100AF8EE477A37EE888A00200146224606F0F5FC0020014606F00DFD0020014606F041FD07EE100AF8EE477A37EE888A00200146224606F0E2FC0020014606F0FAFC0020014606F02EFD07EE100AF8EE477A77EE887A17EE900AFBF758F800227D4BFBF7A8F878A3D3E9ED
S2740057100023FBF7A3F800224FF07F53FBF79EF8FBF736FB07EE900A754B1988754A764B03EB8103D2ED006A93ED007A36EEC77A37EE277A82ED007A1860704B93ED007A77EEC77A6E4BC3ED007A6E4BC3ED007A6D4B1B88012B02D0022B04D006E00022674B1A6002E00022664B1A60674C002054
S2740057800146224606F08EFC0020014606F0A6FC0020014606F0DAFC07EE900AB8EE678A00200146224606F07DFC0020014606F095FC0020014606F0C9FC07EE100AF8EE477A37EE888A00200146224606F06AFC0020014606F082FC0020014606F0B6FC07EE100AF8EE477A37EE888A0020014689
S2740057F0224606F057FC0020014606F06FFC0020014606F0A3FC07EE100AF8EE477A77EE887A17EE900AFAF7CDFF0022404BFBF71DF833A3D3E90023FBF718F800223D4BFBF714F8FBF7ACFA07EE900A304B1B8839493A4A02EB8302D1ED006A92ED007A36EEC77A37EE277A81ED007A1060344A64
S27400586092ED007A77EEC77A324AC2ED007A13F0010F77D0FDF7D4F92F4BD3ED006A9FED2F7A76EE876A07EE900AB8EEE76ADFED2C7A66EE277A66EEA77AC7EE877A184B1B885B08274A284901EB8303D2ED006A93ED007A36EEC77A37EE277A82ED007AC3ED007A214B93ED007A77EEC77A204B99
S2740058D0C3ED007A1F48D0E900231F490B88D21A1E4B1A80D0E90023C1E9002357E000BF711CC7711CC7F13F006A010000001C3FA40EFF1FE41EFF1FEC12FF1F38E0FF1F98E0FF1F6CE0FF1F5CDFFF1F046A01000000F03E0000D03F9C0EFF1FC406FF1FB81EFF1F08E0FF1F3CE0FF1F0000C8429A
S2740059406642743AF01EFF1FB00EFF1F18E0FF1FE8DFFF1F50DFFF1FA80EFF1FEEDFFF1FCDCCCC3DFDF788F907EE900AB8EEE77A5FED057A67EE277A8D4B1B885B088D4A8D4901EB8303D2ED006A93ED007A36EEC77A37EE277A82ED007AC3ED007A844B1A880132854981FB020149114FF4FA70C9
S2740059B000FB11221A80824BD3ED009ADFED817AC9EEA79A804BC3ED009A804B93ED008A88EE278A7E4B83ED008A7E4B93ED009ADFED7D7A89EE279A7C4B83ED009A714BD3ED008AC8EEA78A794BC3ED008A794B93F900302BB9FF22764B1A700022764B1A80764B1B88182B03D80133734A138013
S274005A2045E00022714B1A80714B1A88714901EB820181ED008A01326F4981FB0201891001EB8101A2EB41021A80674A13885C1CA4B214803C2B2AD9664B03F12802B2EE047ADFED666AF3EC017AF4EE667AF1EE10FAC8BFF0EE676AF4EE477AF1EE10FA48BFB0EE677A9342EDD136EEC77A17EE2F
S274005A90100AFAF78FFE44A3D3E90023FBF75AF910B9B4F5167F02D901224E4B1A70544B1B78DBB1534BC3ED009A534B83ED008A524BD3ED007A77EEE88A9FED517A68EE878AB7EE007A78EE878A28EE288A4D4B83ED008A4C4B83ED009A26E0474BD3ED007A78EEE77A9FED467A67EE877AB7EEBB
S274005B00007A77EE877A434B93ED007A67EE877A3D4BC3ED007A414B1B7873B1404B93ED000AFCF739FF3F4B93ED000AFCF740FF3D4B93ED000AFCF747FF234B93ED007A304AD2ED007A77EE677AC3ED007A204B93ED007A2C4AD2ED007A77EE677AC3ED007A1E4BD3ED006A2B4A92ED007A36EE78
S274005B70C77A83ED007A254BD3ED006A184B93ED007A36EEC77ADFED226A27EE267AF7EE006A37EE267A67EE877A244BC3ED007ABDEC048B10BD00BFFCA9F1D24D62503FA40EFF1FEC1EFF1FCC1AFF1FD34D6210E41EFF1F0000FA4324E0FF1F9C0EFF1F28E0FF1FF01EFF1F00007A4390E0FF1F4D
S274005BE070E0FF1F1CE0FF1F021FFF1FBC1AFF1F940EFF1F041FFF1F676666660000000036DFFF1F38E0FF1FB81EFF1F14E0FF1F0086AF3B78E0FF1F18E0FF1F90DEFF1F84E0FF1F2CE0FF1F94E0FF1F34E0FF1F2DE9F0472DED068B84B08D4B1B88022B3ED18C4B93ED008A8B4B1868FAF7B2FDDA
S274005C5004460D46894BD3ED007A68EE277A17EE900AFAF7A7FD0022854BFAF721FF02460B4620462946FBF763F808B318EE100AFAF798FD78A3D3E90023FBF777F8B8B17C4B1B88022B13D0072B11D00122744B1A80794B1888754B1A68724B1B68002100910191401A18BF01203C2101F038FE1D
S274005CC0724B1B88022B3ED16A4B93ED008A704B1868FAF76FFD04460D466E4BD3ED007A68EE277A17EE900AFAF764FD0022644BFAF7DEFE02460B4620462946FBF720F808B318EE100AFAF755FD57A3D3E90023FBF734F8B8B15B4B1B88022B13D0072B11D00122594B1A805B4B1888594B1A6837
S274005D30504B1B68002100910191401A18BF01203D2101F0F5FD554BD3ED007AF5EE407AF1EE10FA04D1524B1A68504B1A6013E04F4B93ED007AF4EE477AF1EE10FA0BD04A4B83ED007A00230093019318463A2117EE102A01F0D4FD464B1B8823B9464B1A88444B1A8030E0434A128893422CD0BB
S274005DA0404B1A80012A11D13B4B18883F4B1B88314A12680092364A12680192003018BF01203B21012201F0B3FD16E0374B1C88314B18886400364B83FB041303EB43032549096800912A4909680191003018BF01203B21E31A01F09BFD2E4B1B78002B72D12D4A13802D4A13802D4A13802D4AC8
S274005E1013802D4A13802D4A13802D4A13802D4A1380FCF7DDFD144B1868FAF7C3FC2A4BC3E90001164B1868FAF7BCFC274BC3E90001274B1B7813B9264B1B782BB140F6FF73ADF80E3000F0BABC0023ADF80E3000F0B5BCAFF30080FCA9F1D24D62503F28DFFF1F00E0FF1FC8DFFF1F70DFFF1F15
S274005E800000594082DFFF1F10E0FF1F98DEFF1F7CDFFF1F3CDFFF1FECDFFF1F980EFF1FF4DFFF1F16DFFF1F84DFFF1FD4DFFF1F5655555590DEFF1F001FFF1FB41EFF1FC81AFF1FA00EFF1F9812FF1F960EFF1FE81EFF1FA20EFF1FC01AFF1FF81EFF1F36DFFF1FA2DFFF1FB14B1B8808EE103A0B
S274005EF0B8EEC88AAF4BD3ED007A28EE278AF2EE047A88EE278AAC4B93ED000A38EE400A0DF10E00FCF772FDA84B93F90030002B40F3CC83A64B1B88012B40F09F80A54B1C884FF6FF739C4200F06381A24B1D884FF6FF739D4200F05C81A04B1B88022B00F05781072B00F05481954B1A889C4B26
S274005F6003EB820353ED019A9A4BD3ED008A9FED9AAA88EE8AAA994B93ED009AF7EE007A77EECA7A69EEA77AF4EEC97AF1EE10FA27DD18EE900AFAF70DFC83A3D3E90023FAF7ECFEE8B140F2DC539C4203D80134844B1C805AE04FF6FF72824B1A80884B1888864B1B68874A12680092864A126833
S274005FD00192003018BF01204821012201F0A8FC44E00A2C03D80022764B1A8002E00A3C744B1C80F7EE007A3AEE27AA69EE8A9AB4EEE99AF1EE10FA27DD18EE900AFAF7D1FB65A3D3E90023FAF7B0FEE8B140F2DC539D4203D80135674B1D801EE04FF6FF72654B1A806A4B1888684B1B68694A0E
S27400604012680092684A12680192003018BF01204921012201F06CFC08E00A2D03D80022594B1A8002E00A3D574B1D80544B1B88022B40F0C680534B1C884FF6FF739C4200F0BF80504B1D884FF6FF739D4200F0B8804E4B1B88022B00F0B380072B00F0B080434B1A88514B03EB820353ED019A6F
S2740060B0484BD3ED008A9FED48AA88EE8AAA474B93ED009AF7EE007A77EECA7A69EEA77AF4EEC97AF1EE10FA27DD18EE900AFAF769FB31A3D3E90023FAF748FEE8B140F2DC539C4203D80134324B1C8081E04FF6FF72304B1A80364B1888344B1B68354A12680092344A12680192003018BF0120CB
S2740061204821022201F004FC6BE00A2C03D80022244B1A8002E00A3C224B1C80F7EE007A3AEE27AA69EE8A9AB4EEE99AF1EE10FA4EDD18EE900AFAF72DFB13A3D3E90023FAF70CFE002843D040F2DC539D4203D80135154B1D8044E04FF6FF72124B1A80174B1888154B1B68164A12680092164A74
S27400619012680192003018BF01204921022201F0C7FB2EE0AFF30080FCA9F1D24D62503F80E0FF1FF4DFFF1FE8DFFF1F1CE0FF1F5CDFFF1FA20EFF1FE81EFF1F82DFFF1F9C12FF1F74E0FF1F0000C84224E0FF1FF0DFFF1F28E0FF1F90E0FF1FC412FF1F0A2D03D80022A04B1A8002E00A3D9E4B4C
S2740062001D809E4B1C884FF6FF739C4200F09A809B4B1D884FF6FF739D4200F09380994B1B88022B00F08E80072B00F08B80964B1A88964B03EB820353ED019A944BD3ED008A9FED94AA88EE8AAA934B93ED009AF7EE007A77EECA7A67EEA97AF4EEC97AF1EE10FA28DD18EE900AFAF7A3FA80A332
S274006270D3E90023FAF782FDF0B140F2DC539C4203D801347D4B1C805CE04FF6FF727B4B1A80824B1888824B1A88824B1B687E4909680091804909680191003018BF01204A2101F03DFB45E00A2C03D800226F4B1A8002E00A3C6D4B1C80F7EE007A3AEE27AA6AEE299AB4EEE99AF1EE10FA28DD99
S2740062E018EE900AFAF766FA61A3D3E90023FAF745FDF0B140F2DC539D4203D80135604B1D801FE04FF6FF725D4B1A80634B1888634B1A88634B1B685F4909680091624909680191003018BF01204B2101F000FB08E00A2D03D80022514B1A8002E00A3D4F4B1D80594B1C884FF6FF739C4200F0EB
S274006350B880574B1D884FF6FF739D4200F0B180484B1B88022B00F0A981072B00F0AE80504BD3ED008ADFED479AC8EEA99A4A4B93ED009AF7EE007A77EEE97A68EE277AF4EEC97AF1EE10FA27DD18EE900AFAF709FA33A3D3E90023FAF7E8FCE8B140F2DC539C4203D801343C4B1C8081E04FF69C
S2740063C0FF723A4B1A803C4B1888354B1A88354B1B688DED008A344909680191003018BF01204C2101F0A4FA6BE00A2C03D800222E4B1A8002E00A3C2C4B1C80F7EE007A79EEA79A68EE299AB4EEE99AF1EE10FA27DD18EE900AFAF7CDF915A3D3E90023FAF7ACFCE8B140F2DC539D4203D8013575
S2740064301F4B1D8045E04FF6FF721D4B1A801E4B1888174B1A88174B1B688DED008A164909680191003018BF01204C2101F068FA2FE00A2D2AD80022114B1A8029E000BFFCA9F1D24D62503FE81EFF1F960EFF1F9812FF1F82DFFF1F80E0FF1FBC1EFF1F8CE0FF1F0000C84228E0FF1F88E0FF1F22
S2740064A05CDFFF1F24E0FF1F90E0FF1FA00EFF1FC81AFF1F0CE0FF1FFCDFFF1F0A3D984B1D80984B1B88022B00F0F8800122964B1A70964BB3F800A092456BD1944B1868FAF768F904460D46924B1868FAF762F906460F4618EE100AFAF75CF9804689462046294600228C4BFAF7D2FA02460B4649
S27400651000208A49F9F7EEFF02460B4640464946FAF79CF902460B4630463946FAF708FC00283FD02046294677A3D3E90023FAF71DFC002836D00222774B1A707C4A1388591C89B2118040F2DC52934240F2AE80B1F57F4F12D80021764B1980764B1888704B1A68754B1B68754C2468009401917E
S274006580401A18BF0120442101F0D2F94FF47F426B4B1A806F4B1B881BB102226E4B1A808CE001236D4A13706D4A137064225D4B1A8083E0624B1B880A2B03D80022604B1A8002E00A3B5E4A1380BAF1020F6AD1574B1868FAF7EEF804460D46554B1868FAF7E8F806460F4618EE100AFAF7E2F8DD
S2740065F0804689462046294600224F4BFAF758FA02460B4600204D49F9F774FF02460B4640464946FAF722F902460B4630463946FAF78EFB00283ED0204629463AA3D3E90023FAF7A3FB002835D002223A4B1A70484A1388591C89B2118040F2DC52934234D9B1F57F4F12D800213E4B19803A4BCD
S2740066601888344B1A68394B1B683F4C246800940191401A18BF0120452101F059F94FF47F42384B1A802F4B1B881BB10122324B1A8013E00123314A1370314A13706422204B1A800AE02F4B1B880A2B03D800222C4B1A8002E00A3B2A4A13801B4B1B88012B5BD1294E2A4B1868FAF773F8002240
S2740066D0284BFAF7EDF904460D46274B188807EE900AF8EE677A17EE900AFAF763F802460B4620462946FAF7B1F802460B46D6E90001F9F7F7FEC6E90001FAF741FB104B18605CE0AFF30080FCA9F1D24D62503FC81AFF1F82DFFF1F1CDFFF1F5CDFFF1F7CE0FF1F90E0FF1F000059400000F03F60
S274006740B41EFF1F28DFFF1FECDFFF1F24E0FF1FC8DFFF1F98DEFF1F84DFFF1F2004FF1F74DFFF1F001FFF1F7CDFFF1FC01AFF1FE8DFFF1F004CFD40EEDFFF1F022B26D1244E254B1868FAF715F80022234BFAF78FF904460D46224B188807EE900AF8EE677A17EE900AFAF705F802460B46204617
S2740067B02946FAF753F802460B46D6E90001F9F799FEC6E90001FAF7E3FA164B1860BDF80E205208144B1B8802F0070103EBC1011248415C01EBD202B2F5805F28BF40F6FF72ADF80E20013303F007030A4A13800020BDF80E1005F003FA04B0BDEC068BBDE8F087F81EFF1FE8DFFF1F004CFD4062
S274006820EEDFFF1F7CDFFF1FEA1EFF1F48370100F0B583B0124B1B783BB90A25104C2846FCF708FC2378002BF9D0FEF783FE08F0C3F901900B4F0C4E41F288340025FEF7B3FEFFF7E5F9D7E90023121943EB0503C6E9002301A8042108F0DAFAEFE700BF6204002050DFFF1F1004FF1F38B5094C35
S274006890002323732372084D284602F09BFB284602F0AAFB012323732372044A1373137038BD00BF6000D64200B00640A001D64208B5FAF7EBFF034658B107480749084AFBF738F9034620B1064B1868FBF7B0FB0346184608BD00BF4CE3FF1FB4E3FF1FCCE0FF1F6004FF1F2DE9F04182B00E46A8
S274006900324D2C46324F0FCF0FC497E80F0007C424F8023B1B0C237028462E4909F086FD284609F098FD024641192B4B186850511B790B71284609F08EFD284B1B68C3F307220092DAB20192284425491A0EC3F3074309F047FD284609F07DFD02464119204B186850519B888B801F4C04F1100881
S2740069701E4F284609F06FFD227814F8013C03EB02222844394692B209F02CFD02344445EFD10E4C204609F05EFD01460219144B1868085199889B7991809371204609F052FD20440F4906F1300209F013FD0E482146FBF783FA02B0BDE8F081F4E0FF1F2049010088DFFF1F40490100B0E3FF1F09
S2740069E0BC3601004849010041DFFF1F504901005849010060490100A4E0FF1F70B582B00546304B1A68304B1B68134402A840F8043D09F0E5F90269013202614269643A42612A4C2A4A234607CA03C323F8022B120C1A702046274909F0F8FC204609F00AFD0346244A10681851204609F003FD22
S274006A50224B1B8805EB45021344214A02EB8303C0F1430220465968D2B209F0FCFC204609F0F1FC02191B4B19889B7801539370204609F0E8FC204417492A4609F0AAFC204609F0E0FC154B1B882352144C04F164050A4E23782BB120463146FBF762FA034618B11434AC42F4D10123184602B029
S274006AC070BD00BF5CDEFF1F24DFFF1FF4E0FF1F6449010088DFFF1F70490100D0E3FF1FBC4B0100744901007849010080490100F403002030B583B0954B1B78052B00F27C81DFE813F006002E005800820049016D01904BD3E900238F49D1E90001994208BF904280F06B818A4BD3E9002312F5D1
S274006B307A7243F100038849C1E900238748FBF7B1F8002840F05D81854B814A1278013202EB820202EB8202198801EB82021A8062E17C4BD3E900237E49D1E90001994208BF904280F04781764BD3E9000141F288320023121843EB01037649C1E900237548FBF7CFF8002840F03781704B6C4A26
S274006BA01278013202EB820202EB8202198801EB82021A8038E1674BD3E900236B49D1E90001994208BF904280F02181614BD3E9000142F210720023121843EB01036349C1E900236248FBF7CBF8002840F011815B4B574A1278013202EB820202EB8202198801EB82021A800EE15A4B1B78002B54
S274006C1048D1594B1968594B1B681944584A81FB0223CA18CB17C3EB2243564A02FB131131B94B4B1A8802F5C8721A800020F3E04B4B1868504B1B6883422BD04E4B18604E4B1978FFF750FE68B1434B1A883F4B1B88434909680091002001904D2100F05FFE0120D8E000240094019420461921E9
S274006C802246234600F054FE354B314A1278013202EB820202EB8202198801EB82021A802046C1E0394B1B78002B35D1384B1B787BB94FF4417004F093F800282CD1254BD3E900233349D1E90001994208BF904222D201212D4B19702D4B1970244B1868FFF70AFE002840F096800024009401945C
S274006CF0204619212246234600F01AFE184B144A1278013202EB820202EB8202198801EB82021A80204687E01D4B1B78002B7CD100221A4B1A704FF4417004F059F8012875D1084BD3E9000141F288320023121843EB01031349C1E9002301206CE000BF601FFF1F50DFFF1F301FFF1FD4E3FF1FB5
S274006D60C6E0FF1F581FFF1FD2E3FF1F401FFF1FB0E3FF1FA1E0FF1F5CDEFF1F24DFFF1F07452EC280510100481FFF1F611FFF1F37DFFF1F501FFF1F2B4B1888002840D0C0B2FFF72BFEB0B9002400940194204618212246234600F0BBFD244B244A1278013202EB820202EB8202198801EB820220
S274006DD01A80204600E0012000221B4B1A8023E0FBF716F9F8B1002300930193184624211A4600F09DFD012016E0012014E0012012E0012010E001200EE001200CE001200AE0012008E0012006E0012004E0012002E0012000E0012009490C780134094D85FB043505EB4505A4EB450404FB00F4D7
S274006E400C7003B030BD00BFC4E0FF1FC6E0FF1F601FFF1FABAAAA2A38B5234B1B7813BB2248FBF769F9014670B101221E4B1A701F4BD3E900451F4A0023121943EB05031D48C0E900232CE0194BD3E900231A49D1E90001994208BF90421FD20022174B1A7001211DE0124BD3E900231249D1E9E5
S274006EB00001994208BF904207D200220A4B1A700A48FBF717F901460BE00848FBF75AF9014628B10022044B1A7002E0012100E00121084638BD00BFA1E0FF1F5804FF1F50DFFF1FE0930400C8E3FF1FA0E0FF1FF0B58BB007460A46002305ACD0791855E51890796870D57E0DF8035000AD1D44FE
S274006F20967E6E7002330232142BEFD11A4B1B786BBB0B78102B24D14A788B7803EB022249F658439A421CD1CA780B7903EB0223142B16D14B79282B13D1104C204609F07AFA024605A8214609F092FA48B90C4C204609F070FA02466846214609F088FA28B190233B7003237B70002002E00120E8
S274006F90014B18700BB0F0BDA0E0FF1FD8E3FF1FE0E0FF1FF8B5494C49484A492246FBF70BF92388002B00F087804649002637461EE08A7862B9CA7852B90A7942B94A79042A05D98A79012A02D13C4A138014E0013B9DB22CB2002C09DD32463B468818407888540133DBB21A46A342F7DBABB298
S2740070001AB2062ADDDC314A1380334A1288002A45D019B28A4242D106294BDC00232E4A13802A4A1380F8BD00232B4A1380274A1380F8BD29482A49FFF762FF68B9294B244A92E8030018609980090C9971204819460922FBF73AF91BE022481D491B4B1A88FBF775FC02461B4B188088B118489D
S2740070701C49FBF72BF901221B4B1A701B4BD3E900011B4A0023121843EB01031949C1E900230023104A13800C4A1380F8BD0E4A13801BB20B4A1179527902EB012293420ADBBFE708490B80064B19795B7903EB01239A42B0DBB5E7F8BD00BFC2E0FF1F5C04FF1F20E2FF1F381FFF1FFBE0FF1F7F
S2740070E027E2FF1FF4E0FF1FA1E0FF1F50DFFF1FE0930400C8E3FF1FF0B583B0FAF796FB404B1B783BB90A253E4C2846FBF7A2FF2378002BF9D000223B4B1A803B4F1E463B4C00253B786BB13A4B1B8853B93A4B1B78012B01D1FAF76BFB0023364A1370338051E03388032B35D8DFE803F0021425
S27400715022280023314A13802F4A1370FFF796FBFAF77AFB10B1012333803DE0FAF75EFB0023338038E0FFF7A3FBE0B10122264B1A700023264A1370264A1360022333802AE0FFF7AFFC70B10323338024E0FFF75BFE40B1204B1B7813B1FFF7FBFE1BE00223338018E01A4B1B78ABB91B4B1B889B
S2740071C0A3F5FD7292B2012A0CD940F20522934208D0124A128831880091002001904F2100F0A6FB00233380114BD3E90023121943EB05030F49C1E90023052007F058FE90E700BF62040020C6E0FF1F5CDDFF1F400D0300C4E0FF1FC8E0FF1FD2E3FF1F3A1FFF1FB0E3FF1FA1E0FF1FD4E3FF1FE0
S27400723050DFFF1F5004FF1FF0B412229E4B1A8000249E4B1C809E4B1C809E4B1C809E4B1C709E4B1A4642F8044B5C605460DC601C615C619C61DC611C625C629C62DC621C635C639C63DC631C645C649C64DC641C655C659C65DC651C665C669C66DC661C675C678E4A134643F8044B54605C60C4
S2740072A00A2313818B4A134643F8044B54605C60894A134643F8044B54605C60874B1C80874B1C80874B1C80874B1C800025874B1D60874B1D60874B1D60874B1C60874B1C80874B1C80874B1D60874B1D60874B1D60874B1C60874A874B03CB10605160864B1D60864A874B1A60874B1D60874B1E
S2740073101D60874B1C80874B1C80874B1C80874B1C80874B1C80874B1C80874B1C701C7583F8284083F83C4083F85040834B1D60834B1D60834B1D60834B1D60834B1D60834A134643F8044B5460043343F8044B43F8044B43F8044B43F8044B43F8044B43F8044B43F8044B1C607A4A134643F877
S274007380044B5460043343F8044B43F8044B43F8044B43F8044B43F8044B43F8044B43F8044B1C60704A134643F8044B5460043343F8044B43F8044B43F8044B43F8044B43F8044B43F8044B43F8044B1C60674B1D60674F674E0FCE38607960BA60FB6033783B74644A654B03CB106051601988AD
S2740073F09B7811819372624B624A106818609188927999809A71604B186099809A710B225E4B1A804FF416725D4B1A604FF4E1525C4B1A605C4B1C805C4B1C805C4B1D605C4A134643F8044B5460043343F8044B43F8044B43F8044B43F8044B43F8044B43F8044B43F8044B1C60534A534B1A609D
S274007460534B1C60534B1C60534B544A106818609188927999809A71514B186099809A71504B514A1068186012791A714F4E504B07CB30607160B2601A889B78B281B3734C4B1D604C4B1D604C4B1D604C4B1D604C4B1C70F0BC70477C04002080DFFF1F5804002060040020630400209CDEFF1FFE
S2740074D060DDFF1FB4DFFF1FA4DFFF1F84DFFF1FD4DFFF1F28DFFF1FC0DFFF1FC8DFFF1F70DFFF1F9CDFFF1F20DFFF1F98DEFF1F14DFFF1F7CDFFF1F3CDFFF1F58DFFF1FD0DFFF1F88DFFF1F78500100F4DFFF1F0000964384E0FF1F2CE0FF1F94E0FF1FECDFFF1FF0DFFF1F88E0FF1FFCDFFF1F5A
S27400754076DFFF1FC2DFFF1FF40300207CE0FF1F00E0FF1F74E0FF1F8CE0FF1F0CE0FF1F9C12FF1FC412FF1FBC1EFF1FF8DFFF1FA4E0FF1F805001004CE3FF1F94500100B4E3FF1FA0500100CCE0FF1F2018002064DFFF1F24DFFF1FD0E3FF1FE4DFFF1F04E0FF1F40E0FF1F0000A04114E0FF1F8E
